:020000040800F2
:10000000E0060020C90000088D1700080916000846
:1000100000000000000000000000000000000000E0
:10002000000000000000000000000000D7170008DA
:100030000000000000000000D5170008D9170008D4
:10004000DB00000800000000DB000008DB00000807
:10005000DB000008DB000008DB000008DB00000814
:10006000000000006D0200087D020008DB000008AF
:10007000DB000008DB000008DB00000800000000D7
:10008000DB0000089918000800000000DB000008F1
:10009000DB000008DB000008DB000008DB000008D4
:1000A000DB000008DB000008DB000008DB000008C4
:1000B000DB0000080348854600F03CF80048004794
:1000C0000D1C0008E0060020044880470448004753
:1000D000FEE7FEE7FEE7FEE7FEE7FEE73D18000865
:1000E000B500000830B50B4601460020202201244F
:1000F00009E00D46D5409D4205D31D469540491B5C
:100100002546954040191546521E002DF1DC30BDA4
:10011000D2B201E00270401C491EFBD2704700229F
:10012000F6E710B513460A4604461946FFF7F0FFF6
:10013000204610BD064C0125064E05E0E36807CCBD
:100140002B430C3C98471034B442F7D3FFF7B6FF6B
:10015000D01C0008F01C000810B50146406A426C33
:1001600050231A420AD1416C0122520211434164C8
:100170000168CA681205920F05D020E0C06B026BBF
:100180000846904710BD026A002A18D10A68120773
:1001900015D58A6853070122002B09DB4B680C2414
:1001A000A3434B60416C130299431143416406E041
:1001B000416C202319434164816C1143816400F038
:1001C0006DF910BD10B5406A416C40221143416485
:1001D000816C04221143816400F062F910BD10B5F6
:1001E000406A00F05CF910BDF8B5044600200090AC
:1001F000206881688907890F012905D10168C9072D
:100200002CD1C168090429D48168154A10261140EF
:100210000125002915D181682943816012481149BF
:100220000068FFF75FFF00E0401E00900028FBD150
:1002300000F0EAFB07460CE000F0E6FBC01B0228DA
:1002400007D9606C30436064A06C2843A06401202F
:10025000F8BD20680068C043C007EDD10020F8BD9C
:100260001700008040420F000400002010B5024833
:1002700000F068FA10BD0000D000002010B5024860
:1002800000F060FA10BD00007801002010B50446AF
:100290000068054940181421FFF724FF80002064FE
:1002A0000248E06310BD0000F8FFFDBF00000240FF
:1002B00030B5056C0124AC40C56B6C6004686360AC
:1002C0004368102B036803D099600068C26030BD9A
:1002D0009A600068C16030BD7047F8B505460446B5
:1002E000403528780026012808D001202870206891
:1002F00081688907890F012908D101E00220F8BD32
:100300000168C90738D1C168090435D4616CFF227E
:1003100001329143022211436164C1688907890F48
:100320000091C16889088900C160206881689207CE
:100330001143816000F068FB07460EE000F064FBAB
:10034000C01B022809D9606C022188431021084390
:100350006064002028700120F8BD206880680028B3
:10036000ECDB2068C168009A1143C160606C8008B2
:100370008000401C606404E0606C202108436064DD
:100380000126002028703046F8BD0000F8B5002591
:100390000446403400952278012A39D00122227087
:1003A00003689E68760767D4384F4E68BE424DD0CA
:1003B0009E6A0F78BA4016439E620123826B1B0728
:1003C0009A421FD0012A1DD0022A1BD0032A19D01D
:1003D000042A17D0052A15D0062A13D0072A11D0CF
:1003E00002688B6856697607760FB3420AD0536964
:1003F000DB08DB005361006842690B7A5B075B0F27
:100400001A4342610A68102A04D0112A02D038E047
:100410000220F8BD1E488368102A07D001229205E9
:10042000134383600868102803D02AE00122D20514
:10043000F6E7194817490068FFF754FE0A214843B8
:1004400000E0401E00900028FBD11AE0986A0E7868
:10045000B240904398620968102901D0112910D147
:100460000B488268102904D0012189058A438260E3
:1004700007E00121C905F9E7416C202211434164DD
:100480000125002020702846F8BD00000110000062
:100490000027014040420F000400002070477047D1
:1004A00070470000F8B500250446002803D0606CB2
:1004B000002802D008E00120F8BD0020A0644021FF
:1004C0000855204600F0A8F8606C1022C0060028ED
:1004D00070DB2068816849076CD4616C1301994313
:1004E00002231943616481688907890F012905D1B5
:1004F0000168C9070FD1C16809040CD4C168182369
:100500009943A3681943C160206801696368890041
:100510008908194301612068C1683D4B1940C160D9
:10052000A069E1698003C9030843216A4B031843AA
:10053000636B012B02D001231B0300E0002318434F
:10054000E36818432369022B09D000231843236B67
:10055000666A5B0018430123012E02D00AE00423DF
:10056000F4E7002927D0616C202631436164A16C37
:100570001943A164A16A0E46FF3EC23E02D0E66A5C
:10058000314308432168CE680643CE600126A16B43
:100590003607B14213D0012911D002290FD0032907
:1005A0000DD004290BD0052909D0062907D0072929
:1005B00005D010E028E0012109040843DAE72168AA
:1005C0004E69F608F6004E6121684E69278F7F0755
:1005D0007F0F3E434E612168C9680E4E3140814213
:1005E00007D10020A064606C80088000401C60641B
:1005F00008E0606C0221884310436064A06C1843DB
:10060000A06401252846F8BD606C10436064F8E7DB
:100610001902FEFFE7FF3F83F0B587B005461421BE
:100620006846FFF77CFD1B49286888422FD11A498C
:1006300088694E15304388618869304005904A6961
:10064000300202434A6149690027014005910120B7
:10065000009003200190092069460297C00600F02F
:100660002FF90E480E4C81C427608020A660606080
:100670000001E0602020676120610948083C00F02B
:10068000AFF8002801D0FFF727FEEC63656207B0E2
:10069000F0BD0000002401400010024008000240AC
:1006A000D0000020F7B504460068002580684007A8
:1006B0003DD426464036307801280AD001273770CD
:1006C000E069012807D02046FFF78EFD050002D023
:1006D0002EE00220FEBD606C16490840FF2101316A
:1006E000084360640020A0643070E16B12488862A7
:1006F000E16B1248C862E16B1148086321681C2055
:100700000860206841681022114341602068C16878
:100710003943C1602168E06B4031029B019A00F0CF
:100720008BF82068816804221143816000E0022573
:100730002846FEBDFEF1FFFF59010008DF01000859
:10074000C5010008F0B4C16B0D6801680C68042293
:10075000066C1346B3402B420DD063070BD50B68D4
:100760009B0602D40B6893430B60016C8A40C16BFB
:100770004A60C16A19E00227B74002462F400123B0
:100780002032002F15D0A70713D50C68A40604D477
:100790000C680A25AC430C605370036C022199402D
:1007A000C36B596000211170816A002916D0F0BC1A
:1007B00008470827B7402F4210D024070ED50C68F1
:1007C0000E25AC430C60046C1946A140C46B6160FB
:1007D0008363537000211170016BE6E7F0BC704732
:1007E00070B5040024D00220214620310D46487007
:1007F000226811680F48A3680140606826691843A1
:10080000E3683343184363691843A3691843E369F2
:100810001843084310602046FFF738FD0020A0620F
:10082000E06220636063A06301216970287070BD7D
:10083000012070BD0FC0FFFFF8B504468C46203084
:1008400001780025012909D001260670417800278A
:10085000012905D0077002252846F8BD0220F8BD01
:1008600002214170A76320680168490849000160BE
:1008700061462046FFF71CFDE06A002820680168F9
:1008800002D00E22114306E00A22114301602068C3
:1008900001680422914301602068016831430160CE
:1008A000DAE731B500F0B0F8009C0546601C00D0D6
:1008B000641C00F0A9F8401BA042FAD338BD000028
:1008C000F8B500238DE001249C40A44622407DD051
:1008D0004C68022C01D0122C0CD1DC08A400271883
:1008E0003C6A5D07ED0E0F26AE40B4430E69AE4084
:1008F00026433E6205685E000324B4400F79A54399
:10090000BF07BF0FB7402F4307604D68012D05D0CB
:10091000022D03D0112D01D0122D0ED18568CF6884
:10092000A543B7402F43876047686546AF430D79BD
:10093000ED06ED0F9D403D434560C568A5438C68BD
:10094000B4402C43C4604C68E40049D5284CA569E8
:1009500001263543A561A4699D0834400094254CC7
:10096000AD002F19BC689D072E0F0F25B540AC4375
:100970000925ED06A84201D100250FE01E4DA84231
:1009800001D101250AE01D4DA84201D1022505E053
:100990001B4DA84201D1032500E00525B5402543A4
:1009A000BD60184C25684E689543F60300D5154385
:1009B000256065684E689543B60300D515436560AC
:1009C000A5684E689543F60202D500E008E015439D
:1009D000A560E5684E689543B60200D51543E5600D
:1009E0005B1C0A681446DC4000D06CE7F8BD0000D0
:1009F00000100240000001400004004800080048C8
:100A0000000C0048000401400148006870470000E5
:100A10000000002002480168491C01607047000086
:100A20000000002010B50648016810221143016043
:100A3000002000F007F800F041F8002010BD000091
:100A40000020024000B5014687B00022112000F0CE
:100A500053F8112000F046F81348C26910210A43E8
:100A6000C261C0690840059004A9684600F052F9C7
:100A700000F06CF90D49FFF735FB0E490C4A0A608E
:100A80000D4A401ECA604860002008618860084620
:100A900000F0F8FB002802D0012007B000BD054897
:100AA00000F00BFCF9E700000010024040420F008C
:100AB000001000409C020020E703000008B5084831
:100AC0008169012211438161816911400091C269EC
:100AD00001040A43C261C0690840009008BD0000DB
:100AE00000100240C106C90E01208840014908607B
:100AF0007047000000E100E010B500F049FE10BDB5
:100B0000F8B505460068354CC00352D5E0690026AB
:100B1000C00007D4E16920040143E161E1690140BB
:100B2000012600912E480168C90510D4016882157C
:100B300011430160FFF768FF074604E0FFF764FF19
:100B4000C01B642824D826480068C005F6D5206A52
:100B500003273F02384020D06968394081421CD0C9
:100B6000206A226AB843012109040A432262226AE8
:100B70008A4322622062C0070FD0FFF745FF009032
:100B800008E0FFF741FF0099411A1648814201D958
:100B90000320F8BD206A8007F3D5206A6968B8434E
:100BA00008432062002E04D0E16901200007814340
:100BB000E1612878C00705D0206BA9688008800013
:100BC000084320632878800605D5206B10218843D0
:100BD000E968084320630020F8BD000000100240CF
:100BE0000070004088130000F8B5054644480E46E2
:100BF0000068C007C00FB0420AD2414801684908E6
:100C00004900314301600068C007C00FB0425CD1A9
:100C100028783C4C800705D56068F0218843A96896
:100C2000084360602878C0073FD06868012813D067
:100C30002168022813D08907002946DA61688908EB
:100C4000890001436160FFF7DFFE696807460129FB
:100C50000DD0022917D024E021688903ECE789012F
:100C6000EAE7FFF7D1FEC11B2748814217D8606829
:100C70000007800F0128F4D117E0FFF7C5FEC11B64
:100C8000214881420BD860680007800F0228F4D108
:100C90000BE0FFF7B9FEC11B1B48814201D90320BD
:100CA000F8BD60680007800FF3D115480168C907D7
:100CB000C90FB1420BD901684908490031430160AD
:100CC0000068C007C00FB04201D00120F8BD2878ED
:100CD000400706D56068072109028843E968084390
:100CE000606000F043F86168084A0906090F515C2A
:100CF000C840074908600020FFF7A4FE0020F8BDA7
:100D0000002002400010024088130000B81C0008B8
:100D10000400002010B5072202600A4A53689B07AE
:100D20009B0F43605368F02423408360526807237D
:100D30001B021A40C26004480068C007C00F086068
:100D400010BD000000100240002002400448054988
:100D500000684968044A4905490F515CC84070471A
:100D60000400002000100240C81C000810B512A3A7
:100D70000FCB88B06C460FC413A30FCB0FC416491A
:100D80004A680C20134603401448042B0FD0082B4C
:100D90000DD193021B0F6C46E45CC96A04AB0907D2
:100DA000090F595CD20304D5FFF79CF9604308B0E2
:100DB00010BD0B486043FAE7020304050607080963
:100DC0000A0B0C0D0E0F1010010203040506070894
:100DD000090A0B0C0D0E0F100010024000127A00D1
:100DE00000093D00FEB504460078D04DC00747D04D
:100DF00068680007800F012807D068680007800F27
:100E0000022809D16868C00306D52868800337D551
:100E1000606800287ED033E0012062680004012A67
:100E200011D08100002A01D0052A10D02A688243FF
:100E30002A602868884328606068002814D0FFF77B
:100E4000E3FD06460CE0296801432960F4E72A68BF
:100E50000A432A60F7E7FFF7D7FD801B64286FD8A5
:100E600028688003F7D50BE0FFF7CEFD064604E0C7
:100E7000FFF7CAFD801B6428F1D828688003F7D4E7
:100E800020780126800700283BDA68680007800F79
:100E900007D068680007800F022809D16868C0037E
:100EA00006D42868800715D5E068012832D111E002
:100EB000E0680028286815D030432860FFF7A4FDBB
:100EC000074604E0FFF7A0FDC01B0228C7D828682A
:100ED0008007F7D52868F82188432169C9000843AD
:100EE00028600EE0400840002860FFF78DFD0746AF
:100EF00004E0FFF789FDC01B0228B0D828688007EE
:100F0000F7D42078000724D5E0690028686A10D05B
:100F1000304300E008E16862FFF776FD074604E031
:100F2000FFF772FDC01B022899D8686A8007F7D5C1
:100F30000FE0400840006862FFF766FD074605E0E5
:100F40009DE0FFF761FDC01B022888D8686A800712
:100F5000F7D4207804274007002860DA00200190A9
:100F6000E869C00008D4E969B8060143E961E969A4
:100F700001400120009101906D480168C90511D41C
:100F80000168821511430160FFF73EFD009005E006
:100F9000FFF73AFD0099401A642870D86448006849
:100FA000C005F5D5A06801280AD0002801D0052881
:100FB00010D0286A400840002862286AB84301E03F
:100FC000286A30432862A068002812D0FFF71CFD71
:100FD00000900AE0286A38432862F1E7FFF714FD21
:100FE0000099411A5348814249D8286A8007F5D5AB
:100FF0000DE0FFF709FD009006E0FFF705FD009901
:10100000411A4C4881423AD8286A8007F5D40198A1
:10101000002804D0E969012000078143E9612078B4
:10102000C00635D5606901280CD0401D686B23D0FF
:1010300038436863686B400840006863FFF7E4FC6E
:10104000064622E0686B38436863686B3043686328
:10105000FFF7DAFC064604E0FFF7D6FC801B022807
:101060005BD8686B8007F7D5686BF8218843A16966
:10107000C900084368630BE0B8436863F4E74CE0D9
:10108000FFF7C2FC801B022847D8686B8007F7D4A3
:10109000206A002846D069680907890F022943D0D1
:1010A000012636060228286805D0B0432860FFF7DD
:1010B000ABFC044633E0B0432860FFF7A5FC0746CD
:1010C00004E0FFF7A1FCC01B022826D82868800195
:1010D000F7D4E86AE16A000900010843E862616A3E
:1010E000A06A084369683D2212049143084368607E
:1010F000286830432860FFF787FC044604E0FFF7C8
:1011000083FC001B022808D828688001F7D509E075
:10111000FFF77AFC001B022801D90320FEBD2868D6
:101120008001F5D40020FEBD0120FEBD001002406C
:101130000070004088130000F8B5040007D00026B6
:1011400025464035A662687F002802D005E00120D0
:10115000F8BD2E77204600F04BF802236B7720680D
:1011600001684022914301600721E068090288423A
:1011700001D9002201E0012212030F273F02B842E9
:1011800002D0884200D0A662276B002F05D188428A
:1011900001D9236301E001202063A16860686369CD
:1011A00008432169194308430123A1695B021940DF
:1011B0000843E1690843216A0843A16A084321689A
:1011C0000860616B606AA36908431B0C0427E1682F
:1011D0003B40194308432168104348602068C169B7
:1011E0007A029143C1612666012068770020F8BD2C
:1011F00070B586B0064614216846FEF790FF1C497C
:101200003068884231D11B498A69801402438A615F
:101210008A69024005924A69400102434A6149696C
:10122000002501400591E02000900220019003205C
:1012300003900920029569460495C006FFF740FB1C
:101240000E4C0D4820601020A5606060256165612E
:10125000A5618020E561E0602046FFF7C1FA002823
:1012600001D0FFF739F87465666206B070BD000002
:1012700000300140001002403000024078010020A0
:101280007047704770B5040005D025462035687F4B
:10129000002802D006E0012070BD002028772046FB
:1012A00000F00AF802206877211D206800F0FCFA9F
:1012B00001206877002070BD70470268D368012163
:1012C0000B43D360006802680A4302600020704745
:1012D000704770B50446006801690025C943890755
:1012E000002915DBC168C943890711D4E91E0161D2
:1012F00001202077206880698007204602D0FFF710
:10130000E7FF04E000F096F8204600F094F8257717
:1013100020680169C943490717D4C168C94349070F
:1013200013D40421C9430161022020772068806919
:101330008005800F204602D0FFF7CAFF04E000F0CE
:1013400079F8204600F077F8257720680169C943CD
:10135000090716D4C168C943090712D40821C94333
:101360000161042020772068C0698007204602D0F0
:10137000FFF7AEFF04E000F05DF8204600F05BF8F8
:10138000257720680169C943C90617D4C168C943D4
:10139000C90613D41021C9430161082020772068B1
:1013A000C0698005800F204602D0FFF791FF04E05E
:1013B00000F040F8204600F03EF8257720680169EB
:1013C000C943C90708D1C168C943C90704D1891EE7
:1013D0000161204600F030F820680169C943090620
:1013E00009D4C168C943090605D48021C9430161F4
:1013F0002046FFF745FF20680169C943490609D423
:10140000C168C943490605D44021C943016120464A
:1014100000F01CF820680169C943890609D4C16835
:10142000C943890605D42021C94301612046FFF73D
:1014300028FF70BD7047704710B5006802498842A8
:1014400001D1FFF7E7FA10BD00100040704770B5FA
:10145000040005D025466035687A002802D006E0F1
:10146000012070BD00202872204600F027F82420BB
:10147000687220680168490849000160204600F050
:10148000C5FA0128EDD0606A002802D0204600F09D
:101490004FFA206841680122D202914341602068DE
:1014A000816808229143816020680168012211430C
:1014B0000160204600F0A1FA70BD0000F0B587B0D1
:1014C000044614216846FEF72AFE1A4F01212668B9
:1014D000002219484904022303240125BE420ED1EB
:1014E0008769CE103743876187693740059746691A
:1014F0000E43466140690840059060020FE00F4FBF
:10150000BE4215D1C6690E43C661C6690E40059636
:1015100046690E4346614069084005900C200090E2
:10152000019302AE34C609206946C006FFF7C8F928
:1015300007B0F0BD003801400010024000440040F8
:10154000FFB5064604466036707A83B00D46202803
:1015500058D1002D0CD00598002809D00120A16891
:101560000003814207D12069002804D1E80702D096
:10157000012007B0F0BD307A012843D0012030723D
:101580000020E06621207072FFF73EFA01902746A6
:101590004037059838820598788218E0788A401E8E
:1015A000788206980090002280212046019B00F05E
:1015B000C5FA002818D10120A1680003814202D198
:1015C0002069002812D02168287808856D1C788A47
:1015D0000028E3D106980090002240212046019B7C
:1015E00000F0ACFA002808D00320C2E72888216860
:1015F000C005C00D0885AD1CE9E7202070720020F1
:101600003072B6E70220B4E7FEE700003EB50024E2
:101610001549164800940194029412C00460446075
:10162000046144610125846185600421C461C16055
:10163000FF210246C231203232C2C4620838FEF7AE
:1016400031FF002801D0FEF747FE01200003019082
:101650006946029500940548FEF798FE002801D0DF
:10166000FEF73AFE3EBD0000002401408400002049
:1016700008B50C484169012211434161406910409D
:101680000022009011460920FFF736FA0920FFF7E3
:1016900029FA002211460A20FFF72EFA0A20FFF746
:1016A00021FA08BD0010024008B50848426901212E
:1016B00089050A43426142690A4000924269491120
:1016C0000A43426140690840009008BD0010024092
:1016D00010B511480F490160FF210531416000211B
:1016E0000322816012020161C26001224161520243
:1016F000826101624162082281620723C261C36282
:1017000042630163FFF718FD002801D0FEF7E4FDF6
:1017100010BD0000003001401401002010B50C483D
:101720000A4901604B214902416000218160C1608A
:1017300001618161C1610C22016242614162FFF776
:1017400086FE002801D0FEF7C7FD10BD003801401D
:10175000BC01002010B50C480A490160E121490292
:10176000416000218160C16001618161C1610C2221
:10177000016242614162FFF76AFE002801D0FEF774
:10178000ABFD10BD004400402C020020704700005B
:101790008307FF22DB0E9A408907090E9940002833
:1017A0000BDA0007000F0838830808489B00181858
:1017B000C36993430B43C3617047830804489B008C
:1017C0001B181868904308431860704700ED00E04C
:1017D00000E400E070477047704770B594B0302166
:1017E0006846FEF79CFC002401250F941220059505
:1017F000009010200E9410941394049006900D9471
:1018000005201294C0040C94039502260A901194AA
:10181000089609940B946846FFF7E4FA07200C90A9
:101820000E9401210D960F940CA8FFF7DDF910A876
:1018300010951294FFF764F914B070BD1348016855
:101840000122114301604168114A11404160016861
:10185000104A114001600168012292049143016025
:1018600041683F22120491434160C16A090909019C
:10187000C162016BFF22143291430163416B49083D
:101880004900416300218160704700000010024060
:101890000CB8FF08FFFFF6FE10B50248FFF719FD70
:1018A00010BD00009C020020F0B502681A4B1B4CD2
:1018B000984201D0A04203D17025AA434D682A4323
:1018C000174D184E184F98420AD0A04208D0174C16
:1018D000A04205D0A84203D0B04201D0B84205D101
:1018E0001446032212029443CA6822438024A2436E
:1018F0004C69224302608A68C2620A688262984226
:1019000005D0A84203D0B04201D0B84201D1096944
:10191000016301214161F0BD002C01400004004041
:1019200000400140004401400048014000200040C8
:1019300010B5818CC90707D001684A6801235B0490
:101940009A43836A1A434A60818C890707D50168E4
:101950004A6801231B049A43C36A1A434A60818C74
:10196000490707D501684A6801239B049A43036B22
:101970001A434A60818C090707D501684A68012328
:10198000DB039A43436B1A434A60818CC90607D52F
:101990000268916801231B039943836B194391608B
:1019A000818C890607D501688A6801235B039A4305
:1019B000C36B1A438A60818C490612D503685A6842
:1019C00001210905046C8A4322435A60026C8A4251
:1019D00007D10268516803235B059943436C19439F
:1019E0005160818C090607D501684A680123DB0430
:1019F000806C9A4302434A6010BD0021C1662022D8
:101A0000603042728272017208467047F8B504462F
:101A10002369A268E5691A43636910202B430021FA
:101A200025681A432B680E463E4F3B4013432B60FC
:101A300023685A6803252D03AA43E5682A435A60A0
:101A4000236AA26925681A43AB680B273F02BB4390
:101A50001343AB60344A2568954210D1334A126B68
:101A60009207920F0ED0012A05D0022A05D0032A30
:101A700009D1022007E0042005E0082003E02C4AF9
:101A8000954200D100200122E369D203934224D180
:101A900000280CD002280DD0042813D0082817D015
:101AA00001260A0912010807400F10432FE0FFF733
:101AB0004DF909E061681F4A48088018FEF712FBDB
:101AC00081B2EEE7FFF752F9616840004A08F4E797
:101AD0006168012248081204EFE7002808D00228B4
:101AE00009D004280BD0082814D001263046F8BDB0
:101AF000FFF72CF905E061680F4A48080CE0FFF792
:101B000035F961684A088018FEF7ECFA80B221685E
:101B1000C860EBE7616848088018FEF7E3FA80B216
:101B2000E860E3E7F369FFFF00380140001002407E
:101B3000004400400024F40000127A00FFB581B098
:101B400017460E4604460A9D1DE0681C1BD0002D5A
:101B500005D0FEF759FF0499401AA84213D920680E
:101B60000168FF22A1329143016020688168490821
:101B700049008160202060346072A07200202072D1
:101B8000032005B0F0BD2068C1693046884304D009
:101B90000020B842D9D00020F3E70120F9E7000087
:101BA00010B5024A024900F014F810BDF11B0008FC
:101BB0000800002002E008C8121F08C1002AFAD15C
:101BC00070477047002001E001C1121F002AFBD1BD
:101BD0007047F8B516460F460446002503E039461F
:101BE000B047641C6D1C20780028F8D12846F8BD49
:101BF00013B5044B012269460348FFF7A1FC009886
:101C00001CBD0000FFFF00002C020020FEF70AFFB1
:101C1000FFF7E3FDFFF748FDFFF72AFDFFF7F6FCAE
:101C2000FFF756FDFFF77AFDFFF794FD0E48FEF72C
:101C300054FB002802D00DA0FFF7B2FF1E2212496C
:101C40000948FEF72FFD002802D010A0FFF7A8FFDB
:101C50006420FEF726FE12A0FFF7A2FF0220401C20
:101C60001E28FCD3F7E700008400002048414C5FA9
:101C700041444345785F43616C6962726174696F86
:101C80006E5F5374617274000C00002048414C5F19
:101C90004144435F53746172745F444D41000000DE
:101CA0000D0A2D2D2D2D2D2D2D2D2D2D2D2D2D2DA7
:101CB0002D2D2D2D2D000000000000000000000043
:101CC00001020304060708090000000001020304E2
:101CD000F01C0008000000200C000000B41B0008ED
:101CE000FC1C00080C000020D4060000C41B0008E7
:0C1CF0000000000000127A00000000005C
:04000005080000B53A
:00000001FF
